:1000000048CB0020D16F0000473F0100BD6F0000CA
:10001000BD6F0000BD6F0000BD6F0000BD6F000030
:10002000000000000000000000000000A9700000B7
:10003000BD6F00000000000035730000BD6F0000C0
:10004000F5730000F5730000F5730000F573000010
:10005000F5730000F5730000F5730000F573000000
:10006000F5730000F5730000F5730000F5730000F0
:10007000F5730000F5730000F5730000F5730000E0
:1004C80081F0004102E000BF83F0004330B54FEAFD
:1004D80041044FEA430594EA050F08BF90EA020F6A
:1004E8001FBF54EA000C55EA020C7FEA645C7FEAFD
:1004F800655C00F0E2804FEA5454D4EB5555B8BF20
:100508006D420CDD2C4480EA020281EA030382EA90
:10051800000083EA010180EA020281EA0303362D22
:1005280088BF30BD11F0004F4FEA01314FF4801CF5
:100538004CEA113102D0404261EB410113F0004F07
:100548004FEA03334CEA133302D0524263EB4303BE
:1005580094EA050F00F0A780A4F10104D5F1200E5C
:100568000DDB02FA0EFC22FA05F2801841F10001B7
:1005780003FA0EF2801843FA05F359410EE0A5F18B
:1005880020050EF1200E012A03FA0EFC28BF4CF0BC
:10059800020C43FA05F3C01851EBE37101F0004572
:1005A80007D54FF0000EDCF1000C7EEB00006EEB7F
:1005B8000101B1F5801F1BD3B1F5001F0CD3490809
:1005C8005FEA30004FEA3C0C04F101044FEA445260
:1005D80012F5800F80F09A80BCF1004F08BF5FEAE7
:1005E800500C50F1000041EB045141EA050130BDC7
:1005F8005FEA4C0C404141EB0101013C28BFB1F5D9
:10060800801FE9D291F0000F04BF01460020B1FA23
:1006180081F308BF2033A3F10B03B3F120020CDAF6
:100628000C3208DD02F1140CC2F10C0201FA0CF0D4
:1006380021FA02F10CE002F11402D8BFC2F1200C39
:1006480001FA02F120FA0CFCDCBF41EA0C019040EF
:10065800E41AA2BF01EB0451294330BD6FEA040438
:100668001F3C1CDA0C340EDC04F11404C4F1200223
:1006780020FA04F001FA02F340EA030021FA04F335
:1006880045EA030130BDC4F10C04C4F1200220FA8C
:1006980002F001FA04F340EA0300294630BD21FACA
:1006A80004F0294630BD94F0000F83F4801306BF90
:1006B80081F480110134013D4EE77FEA645C18BF84
:1006C8007FEA655C29D094EA050F08BF90EA020F1B
:1006D80005D054EA000C04BF1946104630BD91EA13
:1006E800030F1EBF0021002030BD5FEA545C05D116
:1006F8004000494128BF41F0004130BD14F5800455
:100708003CBF01F5801130BD01F0004545F0FE41C8
:1007180041F470014FF0000030BD7FEA645C1ABFFD
:10072800194610467FEA655C1CBF0B46024650EA34
:10073800013406BF52EA033591EA030F41F4002160
:1007480030BD00BF90F0000F04BF0021704730B5E6
:100758004FF4806404F132044FF000054FF00001BB
:1007680050E700BF90F0000F04BF0021704730B57C
:100778004FF4806404F1320410F0004548BF404251
:100788004FF000013EE700BF42004FEAE2014FEAA6
:1007980031014FEA02701FBF12F07F4393F07F4F81
:1007A80081F06051704732F07F4208BF704793F084
:1007B8007F4F04BF41F40021704730B54FF4607497
:1007C80001F0004521F000411CE700BF50EA01029A
:1007D80008BF704730B54FF000050AE050EA010243
:1007E80008BF704730B511F0004502D5404261EBB3
:1007F80041014FF4806404F132045FEA915C3FF4F4
:10080800D8AE4FF003025FEADC0C18BF03325FEA90
:10081800DC0C18BF033202EBDC02C2F1200300FA41
:1008280003FC20FA02F001FA03FE40EA0E0021FA66
:1008380002F11444BDE600BF70B54FF0FF0C4CF454
:10084800E06C1CEA11541DBF1CEA135594EA0C0F06
:1008580095EA0C0F00F0DEF82C4481EA030621EA41
:100868004C5123EA4C5350EA013518BF52EA03357C
:1008780041F4801143F4801338D0A0FB02CE4FF02E
:100888000005E1FB02E506F00042E0FB03E54FF05E
:100898000006E1FB03569CF0000F18BF4EF0010E56
:1008A800A4F1FF04B6F5007F64F5407404D25FEA52
:1008B8004E0E6D4146EB060642EAC62141EA555105
:1008C8004FEAC52040EA5E504FEACE2EB4F1FD0C47
:1008D80088BFBCF5E06F1ED8BEF1004F08BF5FEAC5
:1008E800500E50F1000041EB045170BD06F0004677
:1008F80046EA010140EA020081EA0301B4EB5C0424
:10090800C2BFD4EB0C0541EA045170BD41F480111B
:100918004FF0000E013C00F3AB8014F1360FDEBF40
:10092800002001F0004170BDC4F10004203C35DA1C
:100938000C341BDC04F11404C4F1200500FA05F39F
:1009480020FA04F001FA05F240EA020001F0004240
:1009580021F0004110EBD37021FA04F642EB0601B6
:100968005EEA430E08BF20EAD37070BDC4F10C04E0
:10097800C4F1200500FA04F320FA05F001FA04F2A4
:1009880040EA020001F0004110EBD37041F1000190
:100998005EEA430E08BF20EAD37070BDC4F120059B
:1009A80000FA05F24EEA020E20FA04F301FA05F203
:1009B80043EA020321FA04F001F0004121FA04F2AB
:1009C80020EA020000EBD3705EEA430E08BF20EA7B
:1009D800D37070BD94F0000F0FD101F000464000B5
:1009E80041EB010111F4801F08BF013CF7D041EA37
:1009F800060195F0000F18BF704703F0004652003B
:100A080043EB030313F4801F08BF013DF7D043EA0B
:100A18000603704794EA0C0F0CEA135518BF95EAC1
:100A28000C0F0CD050EA410618BF52EA4306D1D148
:100A380081EA030101F000414FF0000070BD50EA67
:100A4800410606BF1046194652EA430619D094EAF1
:100A58000C0F02D150EA013613D195EA0C0F05D1DB
:100A680052EA03361CBF104619460AD181EA03012F
:100A780001F0004141F0FE4141F470014FF00000E7
:100A880070BD41F0FE4141F4780170BD70B54FF082
:100A9800FF0C4CF4E06C1CEA11541DBF1CEA135502
:100AA80094EA0C0F95EA0C0F00F0A7F8A4EB0504E4
:100AB80081EA030E52EA03354FEA013100F08880DB
:100AC8004FEA03334FF0805545EA131343EA1263A4
:100AD8004FEA022245EA111545EA10654FEA002659
:100AE8000EF000419D4208BF964244F1FD0404F512
:100AF800407402D25B084FEA3202B61A65EB03056E
:100B08005B084FEA32024FF480104FF4002CB6EB2A
:100B1800020E75EB030E22BFB61A754640EA0C00AA
:100B28005B084FEA3202B6EB020E75EB030E22BFEA
:100B3800B61A754640EA5C005B084FEA3202B6EB2B
:100B4800020E75EB030E22BFB61A754640EA9C00EA
:100B58005B084FEA3202B6EB020E75EB030E22BFBA
:100B6800B61A754640EADC0055EA060E18D04FEA78
:100B7800051545EA16754FEA06164FEAC30343EA18
:100B880052734FEAC2025FEA1C1CC0D111F4801FE5
:100B98000BD141EA00014FF000004FF0004CB6E7DE
:100BA80011F4801F04BF01430020B4F1FD0C88BF7D
:100BB800BCF5E06F3FF6AFAEB5EB030C04BFB6EB88
:100BC800020C5FEA500C50F1000041EB045170BD7B
:100BD8000EF0004E4EEA113114EB5C04C2BFD4EBA8
:100BE8000C0541EA045170BD41F480114FF0000E2C
:100BF800013C90E645EA060E8DE60CEA135594EAA8
:100C08000C0F08BF95EA0C0F3FF43BAF94EA0C0FAA
:100C18000AD150EA01347FF434AF95EA0C0F7FF41F
:100C280025AF104619462CE795EA0C0F06D152EA73
:100C380003353FF4FDAE1046194622E750EA410657
:100C480018BF52EA43067FF4C5AE50EA41047FF468
:100C58000DAF52EA43057FF4EBAE12E74FF0FF3CCD
:100C680006E000BF4FF0010C02E000BF4FF0010C9E
:100C78004DF804CD4FEA410C7FEA6C5C4FEA430C17
:100C880018BF7FEA6C5C1BD001B050EA410C0CBF66
:100C980052EA430C91EA030F02BF90EA020F0020C8
:100CA800704710F1000F91EA030F58BF994208BF2F
:100CB80090422CBFD8176FEAE37040F001007047EC
:100CC8004FEA410C7FEA6C5C02D150EA013C07D143
:100CD8004FEA430C7FEA6C5CD6D152EA033CD3D08E
:100CE8005DF8040B704700BF8446104662468C4688
:100CF8001946634600E000BF01B5FFF7B7FF0028BB
:100D080048BF10F1000F01BD4DF808EDFFF7F4FFE3
:100D18000CBF012000205DF808FB00BF4DF808ED6E
:100D2800FFF7EAFF34BF012000205DF808FB00BF91
:100D38004DF808EDFFF7E0FF94BF012000205DF8B3
:100D480008FB00BF4DF808EDFFF7CEFF94BF012068
:100D580000205DF808FB00BF4DF808EDFFF7C4FF61
:100D680034BF012000205DF808FB00BF4FEA4102B4
:100D780012F5001215D211D56FF47873B3EB6252E5
:100D880012D94FEAC12343F0004343EA505311F00C
:100D9800004F23FA02F018BF404270474FF000009E
:100DA800704750EA013005D111F0004008BF6FF0DC
:100DB800004070474FF00000704700BF4FEA410203
:100DC800B2F1E04324BFB3F5001CDCF1FE5C0DD9A1
:100DD80001F0004C4FEAC0024CEA5070B2F1004FEB
:100DE80040EB830008BF20F00100704711F0804FEE
:100DF80021D113F13872BCBF01F00040704741F4B3
:100E080080114FEA5252C2F11802C2F1200C10FAB6
:100E18000CF320FA02F018BF40F001004FEAC1239A
:100E28004FEAD32303FA0CFC40EA0C0023FA02F33E
:100E38004FEA4303CCE77FEA625307D150EA013314
:100E48001EBF4FF0FE4040F44000704701F00040E4
:100E580040F0FE4040F40000704700BF80F00040C2
:100E680002E000BF81F0004142001FBF5FEA41037A
:100E780092EA030F7FEA226C7FEA236C6AD04FEA7A
:100E88001262D2EB1363C1BFD218414048404140BF
:100E9800B8BF5B42192B88BF704710F0004F40F471
:100EA800000020F07F4018BF404211F0004F41F48D
:100EB800000121F07F4118BF494292EA030F3FD059
:100EC800A2F1010241FA03FC10EB0C00C3F120036C
:100ED80001FA03F100F0004302D5494260EB4000FB
:100EE800B0F5000F13D3B0F1807F06D340084FEA66
:100EF800310102F10102FE2A51D2B1F1004F40EB5B
:100F0800C25008BF20F0010040EA030070474900C2
:100F180040EB0000013A28BFB0F5000FEDD2B0FA5F
:100F280080FCACF1080CB2EB0C0200FA0CF0AABF82
:100F380000EBC25052421843BCBFD0401843704720
:100F480092F0000F81F4000106BF80F40000013226
:100F5800013BB5E74FEA41037FEA226C18BF7FEAFD
:100F6800236C21D092EA030F04D092F0000F08BF3F
:100F78000846704790EA010F1CBF0020704712F026
:100F88007F4F04D1400028BF40F00040704712F165
:100F980000723CBF00F50000704700F0004343F0CA
:100FA800FE4040F4000070477FEA226216BF084600
:100FB8007FEA23630146420206BF5FEA412390EAC3
:100FC800010F40F4800070474FF0000304E000BFB9
:100FD80010F0004348BF40425FEA000C08BF70476A
:100FE80043F0964301464FF000001CE050EA01022E
:100FF80008BF70474FF000030AE000BF50EA010243
:1010080008BF704711F0004302D5404261EB41012F
:101018005FEA010C02BF84460146002043F0B64354
:1010280008BFA3F18053A3F50003BCFA8CF2083A79
:10103800A3EBC25310DB01FA02FC634400FA02FC82
:10104800C2F12002BCF1004F20FA02F243EB020089
:1010580008BF20F00100704702F1200201FA02FCEB
:10106800C2F1200250EA4C0021FA02F243EB0200DE
:1010780008BF20EADC70704753B94AB9002908BF95
:1010880000281CBF4FF0FF314FF0FF3000F00CB8C4
:10109800ADF1080C6DE904CE00F010F8DDF804E0BD
:1010A800DDE9022304B07047704700BF034613F818
:1010B800012B002AFBD1181A013870472DE9F04797
:1010C8008C468E46089E154604461946002B40F06D
:1010D800D080724547D9B2FA82F74FB1C7F12003E1
:1010E8000EFA07FCBD40BC4020FA03F343EA0C0C9F
:1010F8004FEA154EA8B2230CBCFBFEF80EFB18CC29
:1011080008FB00F943EA0C43994528D9EB1808F184
:10111800FF3204D2994502D9A8F102022B44A3EB6D
:101128000903A4B2B3FBFEFC0EFB1C330CFB00F05E
:1011380044EA0344A04214D92C190CF1FF3304D219
:10114800A04202D9ACF102032C44241A43EA02401B
:101158001EB1FC40002334607360BDE8F08742464E
:10116800DDE76346F1E7002A79D0B2FA82F3002B73
:101178003FD01946C1F1200302FA01F500FA01F443
:101188002EFA03F20EFA01FE20FA03F3AFB243EA95
:101198000E034FEA154EB2FBFEFC0EFB1C201A0C88
:1011A8000CFB07F842EA004290455AD9AA180CF1FC
:1011B800FF3004D2904502D9ACF102002A44A2EBD8
:1011C80008029BB2B2FBFEFC0EFB1C220CFB07F7CD
:1011D80043EA02439F4246D9EB180CF1FF3204D28E
:1011E8009F4202D9ACF102022B44DB1B42EA0042C7
:1011F80002E0AEEB020301224FEA154EAFB2200C1B
:10120800B3FBFEFC0EFB1C330CFB07F840EA034360
:1012180098452AD9EB180CF1FF3004D2984502D929
:10122800ACF102002B44A3EB0803A4B2B3FBFEFC11
:101238000EFB1C330CFB07F744EA0344A74216D9FC
:101248002C190CF1FF3304D2A74202D9ACF10203E6
:101258002C44E41B43EA00400F46114678E71F215F
:1012680088E76046ABE76246BFE76046DBE7634670
:10127800EFE7734506D916B9002108466DE7C6E9B8
:10128800000EF9E7B3FA83F787B9734501D38242B1
:1012980007D8841A6EEB030301209C461EB900216F
:1012A8005BE73846FAE7C6E9004CF8E7C7F1200CD7
:1012B800BB4000FA07F422FA0CF520FA0CF1BA4008
:1012C8001D432EFA0CF30EFA07FE4FEA154941EAC0
:1012D8000E011FFA85FEB3FBF9F809FB18300B0C59
:1012E80008FB0EFA43EA00439A4540D9EB1808F187
:1012F800FF3004D29A4502D9A8F102002B44A3EB8F
:101308000A0389B2B3FBF9F809FB183308FB0EFE90
:1013180041EA03418E452CD9691808F1FF3304D2FC
:101328008E4502D9A8F10203294443EA0040A1EB03
:101338000E01A0FB02984145CE46434602D306D192
:101348004C4504D20138B9EB020E68EB0503002EB8
:10135800A5D0B4EB0E0261EB030101FA0CFC22FAF2
:1013680007F3F9404CEA0303C6E9003197E7404622
:10137800C5E74346D9E700002DE9F04F2DED088B6E
:10138800800017280C4687B040F22181002900F020
:101398001E81CB898D8915FB03F50B68ADB24FEA29
:1013A800850A03EB850C6345278A32D115FB07F7BD
:1013B800BFB23E464FF00009D4F80080BB1B9BB279
:1013C8009F4245D80123D4ED027AA27CB8EE677A11
:1013D800934007EE903AF8EEE77A4FF00008C7EE30
:1013E800278A9FED819ADFED819A9FED81AADFED33
:1013F80081AA23680593059B03EB880B1FFA88F3E2
:101408009D4240F2EB80002359461E461F46208A23
:101418004AE000211A6803EB0A06013188B28742C4
:101428000AD819460020A2F5F3424E3A278A86B216
:10143800B74207D80433B6E7306856448242B8BF8B
:101448000246EAE70E680130B61A0E605144EDE72D
:10145800B6F5007F1DD8032E14D8C6F104029200F9
:10146800002108EB860015F07EFD04220123414689
:1014780040460093A6F5007615F0A5F808F5006833
:10148800B6B29BE7F30707D5721C48F8269092B2CC
:10149800ECE74FF40072E9E73246E7E70A68013300
:1014A800961947EBE27751449AB29042F6D856EA39
:1014B800070304BF012600274FF000099FED4EBA2D
:1014C800228A1FFA89F39A4202D808F1010892E7A2
:1014D800DBED007A30463946B8EEE78AFFF786FD3D
:1014E80028EE288A07EE100AC8EE077AF8FE677A0F
:1014F80094F9133008EE103AB8EEC88A237D38EE16
:10150800278A022B22D0042B3CD0012B15D1B4EE14
:10151800EA8AF1EE10FA1FFA89F205FB0282616885
:101528000FDCB4EECB8AF1EE10FA0CD4FDEEC87ADB
:10153800CDED037A9DF90C308B54D34409F10109A0
:10154800BEE77F23F8E76FF07F03F5E7B4EEC98ABB
:10155800F1EE10FA1FFA89F205FB028261680CDCD1
:10156800B4EEE98AF1EE10FA0AD4BDEEC88A18EE94
:10157800103A1BB221F81230DFE747F6FF73F9E79C
:101588001E4BF7E7636818EE100A03931FFA89F3F6
:1015980005FB03830493FFF7F7F811A3D3E90023AE
:1015A800FFF7DAFB68B9B4EECA8AF1EE10FA0BD489
:1015B800FDEEC87A17EE903ADDE9032142F82130B2
:1015C800BBE76FF00043F7E74FF00043F4E74FF055
:1015D800FF3007B0BDEC088BBDE8F08F0020F8E7BE
:1015E8000000C0FFFFFFDF4100FEFF46000000C70C
:1015F800000000CF0000FE42000000C30080FFFF93
:101608002DE9F04F2DED028B154687B000F142020F
:10161800044601919200002B00F0A18035B91A60B0
:10162800284607B0BDEC028BBDE8F08F19681A6038
:10163800914201D20025F3E72E460FF22C19D9E981
:10164800008900274FF0000A019BDFF82CB12860C1
:101658006B602046FFF786F8BC4241EC100B52DD68
:10166800CDE904013846FFF77DF841A3D3E900230B
:10167800FFF7E2F89DED040B53EC102BFFF706FA89
:10168800019B41EC180B3BB118EE903A03F1004373
:10169800029003939DED028BB0EE480AF0EE680AC3
:1016A80000F01AF9424651EC100B4B46FFF7C4F80C
:1016B80052465B46FEF70AFF41EC100B10F0B6FFEE
:1016C80051EC100BFFF752FBB0EE480AF0EE680A37
:1016D800A6F8080100F0CCFC424651EC100B4B4632
:1016E800FFF7AAF852465B46FEF7F0FE41EC100BF6
:1016F80010F09CFF51EC100BFFF738FB0137A6F8F0
:101708000A010436A5E710F0EFFF10F08FFF04265A
:1017180059EC108B05F1080794FBF6F306FB13420E
:10172800AAB1022E0FD0042E0FD002363046FFF792
:1017380019F802460B4640464946FFF7EFFA0028DB
:1017480018BF2646E8E70326F0E70226EEE7012B56
:101758001C46C7E900637FF763AF0837DCE71D461F
:101768005EE700BFAFF3008000000000C0FFDF406D
:10177800182D4454FB2119C00000E03F0000000070
:101788002DE9F04F2DED028B10F0010687B01546BC
:10179800029112D1441004F1420004EB440280008B
:1017A80002EBD272521000F10C07059007EB82028F
:1017B8001BB11F681A60974206D20025284607B059
:1017C800BDEC028BBDE8F08F002DF6D005F10C02C0
:1017D8001318A0F5847018446B60A8602A6020462E
:1017E80005ABFFF70DFF4FF0000A04EBD477DFF8E5
:1017F800E0B07F10B742E1DD01363046FEF7B2FFB8
:10180800804620468946FEF7ADFF02460B46404615
:101818004946FFF73BF952465B46FEF757FE28A3B9
:10182800D3E90023FFF708F8029B41EC180B3BB102
:1018380018EE903A03F10043009001939DED008B60
:10184800B0EE480AF0EE680A00F046F81EA3D3E9A5
:10185800002351EC100BFEF7EFFF52465B46FEF7F4
:1018680035FE41EC100B10F0E1FE4FEA8609AB683B
:1018780051EC100BA9F1040903EB09080393FFF7D6
:1018880075FA039BB0EE480AF0EE680A23F80900DF
:1018980000F0EEFB0CA3D3E9002351EC100BFEF78C
:1018A800CBFF52465B46FEF711FE41EC100B10F0E1
:1018B800BDFE51EC100BFFF759FAA8F8020099E7A2
:1018C800182D4454FB2109C000000000C0FFDF4070
:1018D8000000E03F000000007FB58DED000B019B8C
:1018E8001F4A23F00043934206D89FED1B1B07B005
:1018F8005DF804EB01F038B81A4A934204D907B0EE
:101908005DF804EB00F008BF02A800F0B5F900F09C
:10191800030001289DED020B9DED041B07D0022852
:1019280011D098B901F020F853EC102B06E001F023
:101938002BFC51EC100B024601F1004343EC102B39
:1019480007B05DF804FB01F00FF8F2E7012001F0A1
:101958001BFCE9E7AFF30080000000000000000076
:10196800FB21E93FFFFFEF7F2DE9F04755EC104BD6
:1019780025F00042B64988B0EE0F8A4236D9B549FB
:101988008A4214D9C5F313032246234307D02B46B2
:1019980020462946FEF79AFD04460D4602E0002E31
:1019A80040F0258145EC104B08B0BDE8F08792A3C4
:1019B800D3E9002320462946FFF7CEF9074628B188
:1019C800002008B0BDE8F04700F096BE8CA3D3E92C
:1019D800002320462946FFF7A1F9002800F0878058
:1019E800384608B0BDE8F04700F076BE9A4B9A42F8
:1019F80040F2A980994B9A4279D8994B20462946BA
:101A0800F70003EBC60386F0010AD3E90023FEF7CB
:101A18005BFD944B804689463B44AAEB060A93ED4E
:101A2800007B8DED007BDDE9002340464946FEF74B
:101A38004BFD04460D4622462B4620462946FEF716
:101A4800FBFE06460F4670A3D3E90023FEF7F4FE1B
:101A58006FA3D3E90023FEF737FD32463B46FEF776
:101A6800EBFE6DA3D3E90023FEF730FD32463B467B
:101A7800FEF7E2FE6AA3D3E90023FEF725FD32460E
:101A88003B46FEF7D9FE68A3D3E90023FEF71EFD07
:101A980032463B46FEF7D0FE02460B462046294614
:101AA800FEF712FD02460B4606460F46204629461B
:101AB800FEF7C2FECDE90201BAF1000F5CD10022A7
:101AC8004FF0804330463946FEF7FEFC02460B468F
:101AD800DDE90201FEF7DAFF22462B46FEF7F4FCA9
:101AE80002460B4600206049FEF7EEFC54E75F4BC8
:101AF8002046294603EBC6064DA3D3E90023FEF78B
:101B08009BFED6E90023FEF7E1FCFFF72FF982469A
:101B1800FEF728FE06460F4647A3D3E90023FEF743
:101B28008BFE02460B4620462946FEF7CDFC804632
:101B380089463046394642A3D3E90023FEF77CFEA6
:101B4800CDE900016FE74A4B9A4210D82046294652
:101B58003DA3D3E90023FEF7B9FC0022424BFFF76F
:101B6800FBF838B10022404B2046294612E74FF0D7
:101B7800000A60E782465EE732463B4600204FF0A7
:101B88008041FEF7A1FC02460B46DDE90201FEF7A3
:101B98007DFF02460B46DDE90001FEF795FC424653
:101BA8004B46FEF791FC02460B4600202E49FEF7F5
:101BB8008BFC0B460C466FF47F7102468A4508DBA6
:101BC800CDE90423DDE9042304EB0A5314461D463A
:101BD800E8E60AF57A7ACDE906230022DDE906016E
:101BE80003EB0A514FF0B873FEF726FED4E6002443
:101BF8000025D7E6AFF30080EF39FAFE422E864083
:101C080051302DD5104987C0D0A4BE726937663EC1
:101C1800F16BD2C541BDBB3E2CDE25AF6A56113FE4
:101C280093BDBE166CC1663F3E5555555555C53FCB
:101C3800FE822B654715F73F0000E0FE422EE63F87
:101C4800763C7935EF39EA3D9C7500883CE4377E6F
:101C5800412E8640FFFFEF7F422ED63FB1A2F03FD4
:101C680048840100388401000000F03F58840100D6
:101C7800FFFFEF3D000000002DE9F04F59EC108BFD
:101C880029F0004AC44B8FB004469A45CDF8189005
:101C980007D80022002380ED000BC0E902230025AD
:101CA80028E0BE4B9A4578D8069B4046BC4D49462D
:101CB800002BABA3D3E9002338DDFEF705FCAA45CA
:101CC80006460F461AD0A8A3D3E90023FEF7FCFB6B
:101CD80002460B468046894630463946FEF7F4FBF5
:101CE800A1A3D3E900230125FEF7EEFBC4E900898F
:101CF800C4E9020128460FB0BDE8F08F9CA3D3E9E0
:101D08000023FEF7E1FB06460F469BA3D3E9002319
:101D1800FEF7DAFB02460B468046894630463946CE
:101D2800FEF7D2FB94A3D3E90023DCE7FEF7CEFB52
:101D3800AA4506460F4618D08BA3D3E90023FEF721
:101D4800C5FB02460B468046894630463946FEF7B3
:101D5800BBFB85A3D3E90023FEF7B8FB4FF0FF35A3
:101D6800C4E90089C4E90201C4E781A3D3E90023D7
:101D7800FEF7ACFB06460F467FA3D3E90023FEF728
:101D8800A5FB02460B468046894630463946FEF793
:101D98009BFB79A3D3E90023DEE7824B9A4500F247
:101DA800D18029F00047404675A3D3E9002339467E
:101DB800FEF742FD00227C4BFEF788FBFEF7D6FFBC
:101DC8000546FEF7CFFC02460B46CDE9042364A383
:101DD800D3E90023FEF730FD02460B46404639465C
:101DE800FEF772FB804689465FA3D3E90023DDE94D
:101DF8000401FEF721FD02460B46CDE902014046EB
:101E08004946FEF761FB1F2D06460F4605DC6A1E94
:101E1800664B53F82230534508D14FEA2A530793AB
:101E2800C7F30A53C3EB1A53102B02DCC4E900674B
:101E38003BE04FA3D3E90023DDE90401FEF7FCFCF6
:101E480006460F4602460B4640464946FEF73CFB0F
:101E580002460B4682468B4640464946FEF734FB0F
:101E680032463B46FEF730FB06460F4642A3D3E90F
:101E78000023DDE90401FEF7DFFC32463B46FEF7AE
:101E880023FB02460B46CDE9020150465946FEF7B0
:101E98001BFB079AC1F30A5306460F46D31A312B88
:101EA8001DDCD046D946C4E9006732463B46404669
:101EB8004946FEF709FBDDE90223FEF705FB069B11
:101EC800002BC4E90201BFF615AF07F100432660F5
:101ED800A060636001F10043E3606D420AE72AA352
:101EE800D3E90023DDE90401FEF7A6FC06460F4608
:101EF80002460B4650465946FEF7E6FA02460B469E
:101F08008046894650465946FEF7DEFA32463B4639
:101F1800FEF7DAFA06460F461DA3D3E90023DDE9EA
:101F28000401FEF789FC32463B46FEF7CDFA02462D
:101F38000B46CDE9020140464946FEF7C5FA06467A
:101F48000F4673E71A4B9A4534D942464B464046EA
:101F58004946FEF7B9FAC4E90201C4E900019EE660
:101F680000004054FB21F93F3163621A61B4D03D4F
:101F78000000601A61B4D03D7370032E8A19A33B28
:101F880083C8C96D305FE43F0000002E8A19A33B67
:101F9800C14920259A837B39FB21E93F7BD902403F
:101FA800FB21F93FFB2139410000E03F6C0B0300A6
:101FB800FFFFEF7F4FEA2A5540460DF13809A5F299
:101FC8001645AAEB05573946FEF7D0FEFEF7CAFBC1
:101FD80002460B46404639464FF00308CDE9082330
:101FE800FEF772FA0022204BFEF726FC0F46064643
:101FF800FEF7BCFEFEF7B6FB02460B4630463946F6
:1020080000260027CDE90A23FEF75EFA0022164BC8
:10201800FEF712FCCDE90C0132463B46C24608F1F8
:10202800FF3879E90201FEF76FFE0028F4D10F4B63
:102038002A46214608A8019302230093534600F03C
:1020480053FD069B0546002BBFF654AED4E900218C
:1020580001F10043C4E90023D4E9022101F100435E
:10206800C4E9022339E700BF00007041EC0B03000C
:102078007FB58DED000B019B1F4A23F0004393426F
:1020880007D800209FED1A1B07B05DF804EB01F09C
:102098007BB81A4A934204D907B05DF804EB00F004
:1020A8003BBB02A8FFF7E8FD00F0030001289DED07
:1020B800020B9DED041B0CD002280DD0A8B90120FD
:1020C80001F062F853EC102B43EC102B07B05DF8CD
:1020D80004FB00F049FCF5E7012001F055F851EC4C
:1020E800100B024601F10043EEE700F03DFCF6E775
:1020F8000000000000000000FB21E93FFFFFEF7F28
:10210800F8B510EE904A10EE103A34F000472DED75
:10211800048BB0EE609A0DD183F480035B0013F555
:10212800000F40F2AA8230EE098AB0EE480ABDECF0
:10213800048BF8BD23F000411846B1F1FF4F02D8D7
:10214800B7F1FF4F08D9B3F17E5FECD184F4800476
:10215800640014F5000FE4E7002B25DAB7F1974F78
:1021680080F09482B7F17E5F39D3FA15C2F19602F6
:1021780047FA02F505FA02F2BA4229D105F001053B
:10218800C5F10205B7F17E5F2AD1002C80F27B826F
:10219800B5EE400AF1EE10FA1CD1D80FBDEC048B55
:1021A800BDE8F84010F06ABDB7F1FF4F10D1B1F1AA
:1021B8007E5F00F0628205D9002CDFEDD17A29FE1E
:1021C800278AB2E7002C80F25B82B1EE498AACE73D
:1021D8000025D7E7B7EE007A87EE008AA5E7002545
:1021E800B4F1804F0A4640F05782B1F1BF4F0CD28C
:1021F800B1F1D05F02D920EE008A96E7B0EEC08A2E
:1022080059BB012D00FE088A8FE723F04046B0EE47
:10221800C08AB6F17E5F17D1002CBCBFB7EE007A3A
:1022280087EE088A002B80DAA1F17E51294305D177
:10223800BDEC048BBDE8F84010F02EBD012D7FF4F5
:1022480074AFB1EE488A70E739B9002CD9DA002B9F
:10225800A4D06B1E58425841A0E7DE0F013E55EA54
:102268000600E5D0B7F19A4F71D9A64B994208D824
:10227800002C0BDA0020BDEC048BBDE8F84010F010
:10228800EFBCA14B994208D9002CF3DC0020BDEC2F
:10229800048BBDE8F84010F0D5BCB7EE007ADFED4E
:1022A8009B7ADFED9B9A38EE478A93A1D1E900012A
:1022B80068EE278AFEF782FDB5EE007A07EE900AEF
:1022C800DFED946A68EE299A48EE477AB6EE007A0E
:1022D80007EEC87A68EE087A27EE277AF0EE687A71
:1022E80047EE667A39EEA77A17EE103A6FF30B03CA
:1022F80007EE103A77EE699A77EEE97A013DF7EE44
:10230800006ABFEE008A6FF30B04354367EE890A53
:1023180008FE268A06EE904A39EE666A67EE267A45
:1023280046EE070A30EEA77A17EE101A002921F0B8
:10233800004340F31381B3F1864F40F2CC80B5EEF1
:10234800C08AF1EE10FA4CBF0120002093E713F089
:10235800FF4F05BF9FED707A6FF01701002168EEFF
:10236800077A08BF17EE902AD315C2F316027F3BEF
:1023780042F07E500B4469498A4206DD68498A4228
:1023880040F3A7800133A0F500000021654A06EE5E
:10239800100AF7EE006A02EB8102D2ED005A75EEE0
:1023A800867A36EE657AC6EEA74A27EE245A15EEE7
:1023B800102A6FF30B0206EE902A5B4A02EA6002CB
:1023C80042F0005202F5800202EB415207EE902AD9
:1023D80006EEE77A77EEE57ADFED545A36EE676A6D
:1023E80065EE057A06EE667A9FED516A47EE865AE3
:1023F8009FED506A27EE247A66EEA64A05EEA76A94
:10240800DFED4D5A46EE275A9FED4C6A05EEA76A56
:10241800DFED4B5A46EE275A36EE856A67EEA77A05
:1024280026EE076A05EEA76AF0EE085A74EEA57A5A
:1024380077EE867A17EE902A6FF30B0207EE902A52
:1024480077EEE55A27EE277A66EEA76A75EEE45A24
:1024580036EE656A06EE057A9FED3A6A76EE877A79
:1024680017EE902A6FF30B0207EE902A364A77EEA2
:10247800E66A02EB810227EE866A37EE667ADFEDBE
:10248800336A67EEA67ADFED326A47EE267A92ED76
:10249800007A77EE877A07EE103A2E4BF8EEC76A85
:1024A80003EB810336EE277AD3ED005A37EE257A0F
:1024B80037EE267A17EE103A6FF30B0307EE103A51
:1024C80077EE666A76EEE56A76EEC66A77EEE67AC3
:1024D80014E701215AE755D1DFED1F6A37EE677A15
:1024E80070EEA66AF4EEC76AF1EE10FA3FF727AF6E
:1024F80086234BE0AFF30080E13D55555555D53F58
:1025080000000000F3FF7F3F0700803F70A5EC3616
:1025180000AAB83F3BAAB83F0000804B71C41C001A
:10252800D6B35D00040D030000F0FFDF55326C3EAA
:1025380042F1533E05A38B3EABAAAA3EB76DDB3EE4
:102548009A99193F0040763FF40C0300C623F6B869
:102558004F38763FFC0C03003CAA3833534A934269
:1025680007D9B5EEC08AF1EE10FA4CBF0120002061
:102578008DE607D137EE677AB4EEE07AF1EE10FA1D
:10258800B6DBEEE7B3F17C5F72D9DB157E3B4FF427
:102598000000474A002940FA03F00844C0F3C75333
:1025A800A3F17F0342FA03F2C3F1170302EA000220
:1025B800C0F3160040F4000007EE102A40FA03F0BA
:1025C80077EEC77AB8BF404237EEA07ADFED396AB6
:1025D800DFED395AB7EE000A9FED386A17EE103A68
:1025E8006FF30B0307EE103A77EE677A67EE266A09
:1025F80070EEE70ADFED327A27EE277ADFED317ADF
:1026080000EEA77A76EE877A77EEE66A37EE667A94
:1026180067EEA76A07EE877A16EEA56ADFED2A5AF3
:1026280046EE265A9FED296A15EEA66ADFED285A6E
:1026380046EE265AB0EE676A05EEE66AF0EE006AE4
:1026480067EE865A36EE666AC5EE866A36EEC77A51
:1026580077EE677A30EE670A10EE103A03EBC05354
:10266800B3F5000F06DA10F0A7FA20EE088A5CE549
:102678000020A9E700EE103AF7E7B7EE008A54E524
:102688009FED148A51E5B0EE408A4EE5B7F1FF4F51
:102698003FF48DAD0A460225B4F17C5F7FF4B5ADF9
:1026A800002BFFF6B2ADB1EEC08A3EE5000016433E
:1026B800000080FF0072313F4CBB31330EEADD353C
:1026C8008CBEBF351872313F55B38A38610B363B23
:1026D800ABAA2A3E0000000010B19FED030B704723
:1026E8009FED030B704700BF000000000000008052
:1026F800000000000000000010B19FED030B7047C0
:102708009FED030B704700BF000000000000F0FFC2
:10271800000000000000F07F08B514F06EFD9FED8A
:10272800020B08BDAFF30080000000000000F87F36
:1027380010EE103AB3F1FF4F10B52DED048BB0EE4B
:10274800408A06DB30EE008AB0EE480ABDEC048B06
:1027580010BD774A934276DC23F00042B2F17E5FE7
:1027680013D3FFEE007AB4EE670AF1EE10FA06D141
:102778000120BDEC048BBDE8104010F07FBABDEC21
:10278800048BBDE8104010F087BAB2F1645F0FD235
:10279800B2F14A5F24BF20EE007AF6EE007ABDEC73
:1027A800048B28BF07EE670ABDE8104010F0ECBDA7
:1027B800604A134493424ED8F7EE007A38EE277AEF
:1027C80017EE103ADC157F3C002CD5BF77EE677A00
:1027D80037EE488A78EE677A77EEC87A87EE879A76
:1027E800C3F31603544A9342CCBF43F07C5243F0E0
:1027F8007E52F7EE007AC8BFC3F5000307EE102A31
:10280800C4BF01349B1037EE678AF6EE008A68EE83
:10281800288A68EE888A002B44D1B5EE408AF1EE0A
:1028280010FA1DD1002C7AD007EE904AB0EE498AF2
:102838009FED427AF8EEE77A07EE878A9FED407AB5
:1028480007EE878A80E7B3F1B44FB5DBDC159FED5F
:102858003D9A7F3CC4E7012300249FED3A9AD4E7D0
:1028680031A1D1E90001FEF7A9FAB7EE007A07EE27
:10287800900A07EEC87A27EE287A14B938EE478A04
:1028880062E707EE904ADFED2D6AF8EEE77A07EE89
:10289800A69A37EE497A37EE488A9FED297A17EEDD
:1028A800878A51E7F0EE007A9FED276A9FED277A35
:1028B80078EE277AC8EE276A66EEA67A07EE867A59
:1028C8009FED236A07EE276A9FED227A06EE277AA4
:1028D8009FED216A07EE276A9FED207A06EE277A98
:1028E8009FED1F6A07EE276AB0EE687A06EE277A30
:1028F80027EE267A24B978EEC78A38EE688A23E765
:1029080007EE904ADFED0D6AF8EEE77A07EEA69A31
:1029180039EE079A78EEC98A38EEC88ABDE79FED86
:10292800098A11E7AFF30080555555555555E53FD0
:10293800D613D43EE0096A41F6043500D1F71737BB
:102948008071313F000000009788173E4FD01C3E31
:1029580025333A3E298E633E2549923ECDCCCC3E66
:10296800ABAA2A3F000000002DE9F74F59EC108B65
:1029780029F00046B6F1795F8DED001BC0F0888024
:1029880042464B4640464946FDF756FF04460D462B
:1029980000224F4BFDF750FF82468B4620462946C2
:1029A8003DA3D3E90023FDF747FF3DA3D3E9002367
:1029B800FDF78CFD22462B46FDF73EFF3AA3D3E9EF
:1029C8000023FDF781FD22462B46FDF735FF38A38E
:1029D800D3E90023FDF77AFD22462B46FDF72CFFAD
:1029E80035A3D3E90023FDF76FFD22462B46FDF7FB
:1029F80023FF33A3D3E90023FDF768FD22462B46C6
:102A0800FDF71AFF22462B46FDF716FF04460D4632
:102A180040464946DDE90023FDF70EFF0B46024616
:102A280029462046FDF750FD2A4B804689469E429E
:102A380010D802460B4650465946FDF745FD02465A
:102A48000B4600202449FDF73FFD41EC100B03B075
:102A5800BDE8F08F214B002400201F499E422246EA
:102A680094BFA6F500151E4D2B46FDF72DFD2246F9
:102A780006460F462B4650465946FDF725FD424669
:102A88004B46FDF721FD02460B4630463946DAE74C
:102A98009FED0D0BDBE700BFD43888BEE9FAA8BD6F
:102AA800C4B1B4BD9EEE213EAD529C804F7E923E95
:102AB8009015CB19A001FA3E7751C1166CC1563F4B
:102AC8004C5555555555A53F000000000000F03FF6
:102AD8000000E03F3233D33F0000F03F0000E93F01
:102AE8000000D23F000000002DE9F04F2DED028BD1
:102AF800ADF5197D12F1140F4FF000050693A8BF2C
:102B0800D41EC14BB8BF0024049120AEA4990890EC
:102B180053F821300093069B03F1FF330593A4BFBC
:102B2800182394FBF3F46FF0170304FB033303EB50
:102B3800020B009B059A03EB0208A71AA59B9FEDC1
:102B4800AE8B03EB8709454512DD20AD069B0DF5DD
:102B5800E07A002705EBC305009B9F422EDCDDF8D9
:102B68002090A84600269FEDA47B8DED027B1BE0FC
:102B7800EF4207D459F82500FDF7F4FD0135E6E8E2
:102B88000201E0E751EC180BF8E778E90223F9E8CD
:102B980002010136FDF750FE02460B46DDE902014F
:102BA800FDF794FCCDE90201059B9E42EDDD01375E
:102BB80008359DED027BAAEC027BCDE7009A0CABB1
:102BC80003EB820390460A93A59B03EB84030993C6
:102BD8004FEAC8030CAC70ADC2460B9398AB05EB3B
:102BE800C805A14603EBC80313ED287B8DED027BD6
:102BF800BAF1000F77DC58469DED020B10F068FB28
:102C080000224FF07F5357EC106B30463946FDF7E2
:102C180013FE41EC100B0FF009FD00227B4B51EC29
:102C2800100BFDF709FE02460B4630463946FDF704
:102C38004BFC0F460646FEF799F80290FDF792FD09
:102C480002460B4630463946FDF73EFCBBF1000F05
:102C580006460F466CDD08F1FF300CA9CBF11805CC
:102C6800029B51F820C04CFA05F21344AA40029383
:102C7800ACEB0203CBF1170241F8203043FA02F91A
:102C8800B9F1000F64DD029B00226FF07F41013330
:102C980015460293904500F3A180BBF1000F07DDB4
:102CA800BBF1010F00F0BE80BBF1020F00F0C48041
:102CB800B9F1020F4CD132463B4600205449FDF78A
:102CC80003FC06460F46002D42D058469FED4C0B9C
:102CD80010F0FEFA3046394653EC102BFDF7F4FBA2
:102CE80006460F4634E000224A4B0AF1FF3ADDE976
:102CF8000201FDF7A1FDFEF739F8FDF733FD0022CB
:102D0800454B06460F46FDF797FD02460B46DDE9A3
:102D18000201FDF7D9FBFEF729F8394649F8040BFB
:102D2800304675E90223FDF7D1FBCDE902015FE7E3
:102D380007D108F1FF330CAA52F823304FEAE359C0
:102D48009EE70022354BFDF7FDFF002843D1814661
:102D58000022002330463946FDF7D6FF002800F050
:102D6800C18008F1FF3300220CA9009883426BDA76
:102D7800002A00F0858008F1FF38ABF1180B0CAA87
:102D880052F82830002B00F0A880584670AF46460D
:102D98000DF1300A9FED1A0B10F09AFA08F10103B1
:102DA800DA0007EBC307059255EC104B002E80F2B2
:102DB800D1804446002CC0F2FE80194B4FF0000A27
:102DC8004FF0000B00261F4670ABA8EB040503EB81
:102DD800C4030693E3E04FF0020954E754F8043BB8
:102DE80045B923B1C3F1807344F8043C012301328F
:102DF8001D464FE7CB1AF7E700000000000000006F
:102E0800000000000000F03FA41003000000204074
:102E18000000F03F0000703E000070410000E03FFD
:102E28006884010008F1FF310CAA52F82130C3F37D
:102E3800160342F821303BE708F1FF310CAA52F89B
:102E48002130C3F31503F4E751F82300013B024393
:102E58008BE7013453F8042D002AFAD00B9B20AEDF
:102E680008F10107444403F518730DEB0305069BAD
:102E78004344983D06EBC306BC4204DAA046A7E6E5
:102E88000A9B0124E6E7099B4FF0000853F8270046
:102E9800FDF768FCDDF820909FEDAF7BE6E80201C6
:102EA800B2468DED027B059B984505DD01379DED0A
:102EB800027BA5EC027BDFE77AE90223F9E802014D
:102EC800FDF7BAFC02460B4608F10108DDE90201EC
:102ED800FDF7FCFACDE90201E5E708F1FF38ABF1AF
:102EE800180B4DE7CBF1000047EC106B10F0F0F930
:102EF80000229B4B55EC104B20462946FDF722FF3C
:102F080000B30022974B20462946FDF795FC0CAFED
:102F1800FDF72CFF0646FDF725FC0022904B0BF130
:102F2800180BFDF789FC02460B4620462946FDF79B
:102F3800CBFAFDF71BFF47F8280008F1010847F80E
:102F4800286022E720462946FDF710FF0CAB43F81E
:102F580028001AE75AF82600013EFDF703FC22462E
:102F68002B46FDF769FC00227E4B67E902012046EB
:102F78002946FDF761FC04460D4617E70699013618
:102F8800F1E802230691F7E80201FDF755FC024635
:102F98000B4650465946FDF799FA82468B46009BE8
:102FA8009E4201DCAE42E9DD48AB013C03EBC505BE
:102FB800C5E900ABFEE6A49B022B0BDC002B35DC3D
:102FC80059D0029B03F007000DF5197DBDEC028B6B
:102FD800BDE8F08FA49B032BF3D1059BC24603F5F4
:102FE80018730DEB0304A4F5A4742546BAF1000F79
:102FF80069DC4546012D00F3878048AC059D00201B
:1030080000212544B8F1010F00F39C80D4E9006742
:10301800D4E90245B9F1000F40F0A680049BC3E94A
:103028000067C3E90245C3E90401CAE748AD059E44
:10303800444600202E440021002C35DAB9F1000F57
:1030480038D0024601F10043049CC4E9002302463B
:103058000B460124D5E900014AADFDF735FAA04534
:103068002BDAB9F1000F02D001F100431946049B95
:10307800C3E90201A5E748AC059B002000211C44D8
:10308800B8F1000F09DAB9F1000F02D001F10043DD
:103098001946049BC3E9000193E774E9022308F188
:1030A800FF38FDF713FAEBE776E90223013CFDF759
:1030B8000DFAC1E702460B46C6E7F5E802230134DC
:1030C800FDF704FACBE735ED027B0AF1FF3A8DED07
:1030D800007B95ED027BDDE9000153EC172B8DEDAC
:1030E800067BFDF7F3F902460B4606460F46DDE977
:1030F8000001FDF7E9F9DDE90623FDF7E7F9C5E980
:103108000067C5E9020171E734ED027B013DD4E9AE
:1031180002AB51EC170B52465B468DED007BFDF779
:10312800D5F902460B4606460F46DDE90001FDF7D4
:10313800CBF952465B46FDF7C9F9C4E90067C4E913
:10314800020157E775E9022308F1FF38FDF7BEF9D8
:1031580058E700BFAFF30080000000000000000047
:10316800000070410000703E049B049A1E6007F145
:1031780000439460536005F100431061D36001F18E
:10318800004353611DE700BF2DE9F04F55EC104B8C
:1031980025F0004385B08046B3F1795F8DED021BC1
:1031A80052D322462B4620462946FDF745FB824648
:1031B8008B4602460B4620462946FDF73DFB41A3B8
:1031C800D3E90023CDE9000150465946FDF734FB09
:1031D8003EA3D3E90023FDF777F952465B46FDF796
:1031E8002BFB3CA3D3E90023FDF770F952465B465D
:1031F800FDF722FB39A3D3E90023FDF765F9524611
:103208005B46FDF719FB37A3D3E90023FDF75EF909
:1032180006460F46B8F1000F1BD102460B46504632
:103228005946FDF709FB31A3D3E90023FDF74CF913
:10323800DDE90023FDF700FB02460B462046294640
:10324800FDF744F904460D4645EC104B05B0BDE8C2
:10325800F08F00221A4BDDE90201FDF7EDFA8046F6
:10326800894632463B46DDE90001FDF7E5FA0246AC
:103278000B4640464946FDF727F952465B46FDF79F
:10328800DBFADDE90223FDF71FF906460F460AA31C
:10329800D3E90023DDE90001FDF7CEFA02460B462B
:1032A80030463946FDF710F902460B4620462946B6
:1032B800FDF70AF9C6E700BF495555555555C5BF2D
:1032C8000000E03F7CD5CF5A3AD9E53DEB9C2B8AEC
:1032D800E6E55A3E7DFEB157E31DC73ED561C119EB
:1032E800A0012A3FA6F810111111813F49555555E3
:1032F8005555C53F2DE9F0478CB000F0BDF904469F
:10330800002840D100F0E2FA044600283BD100F042
:103318005BF90446002836D100F00CFB044690BB4C
:1033280000F000FC044670BB03214E4A4E4810F0E2
:1033380005FC4E480121D0F80880D8F80430984799
:10334800041E1ADB002509AF00F0E2FBC7E90055AF
:1033580097E8030000F06CF905AE4FF06409CDF86A
:103368000090D8F8084033460021404804AAA047F6
:10337800041E0CDA3E4A234601E023463D4A012159
:10338800394810F0E4FB20460CB0BDE8F087A021D6
:10339800049803AA00F004FB10F1100F0446DCD0D7
:1033A800002802DA344A0346E9E79DF80C30002B7E
:1033B800D3D00123CDE9075507AC8DF81C3094E82C
:1033C800030000F035F900F0A9FA0FF0ECFF00F661
:1033D800B83A00F001FD0223079565608DF81C30AE
:1033E80094E8030000F024F90FF0DDFF50450BD3FB
:1033F8000423059575608DF8143096E8030000F0F5
:1034080017F900F091FA9FE7CDF80090D8F8084036
:103418000021164804AB03AAA047041EAADB3A46BB
:10342800A021039800F0C4FB10F1100F0446DBD074
:1034380010B1124A0346A2E79DF82430002BD3D0DE
:1034480000F054FA0FF0AFFF03238DF81430BDF8E5
:10345800263000F6B83AADF816300A9B069396E87F
:103468000300BFE714110300C07E0100D0740100FF
:10347800621103004411030084110300A711030023
:10348800034BD3E8EF2FC3E8E10F0029F9D17047C8
:10349800F82F002037B5304BD3E8AF3F002B52D17F
:1034A8002E48694609F08EF8054600284BD10120C0
:1034B800FFF7E6FF9DF80030032B18D001D9042B45
:1034C80033D1274A52F823402046FDF7EFFD024644
:1034D8002448214683685D680023A84704460028DD
:1034E80033D00020FFF7CCFF1F4A234612E02821E3
:1034F800019B1E4A1E480DF0CFFF041E0FDA284616
:10350800FFF7BEFF002200236946144808F070FF49
:103518002346184A0121184810F019FB13E0272CFC
:10352800224628BF2722124CD2E72846FFF7A8FFD9
:10353800002200236946094808F05AFF02210F4A71
:103548000D4810F0FBFA03B030BD00220023694695
:10355800024808F04DFFF6E7F82F0020500600203B
:10356800A88401009874010007120300CD1103001C
:1035780038B10020E3110300787E0100F811030040
:1035880010B5064809F036FD031E06DABDE81040FE
:103598000121034A034810F0DABA10BDFC2F0020BD
:1035A80028120300787E0100087808B540B9FFF7B3
:1035B80067FF044B5B6A1BB1BDE80840FFF7E0BF3B
:1035C80008BD00BF5006002010B5124C204611F06F
:1035D8001BFA40B90121104A104810F0AFFA6FF0F9
:1035E8001204204610BDA3681B6883B12046002240
:1035F8000B499847044628B101212346094A074840
:1036080010F0A5FA0849094809F064FCE9E76FF0E9
:103618005704F1E79874010047120300787E01000F
:10362800B13500005B1203009D340000FC2F002020
:1036380013B5CDE90001002300226946094811F0BD
:1036480018FA034630B1084A0121084810F07FFAF9
:1036580002B010BD064809F0CDFC031EF8DA054A91
:10366800F2E700BF5006002080120300787E0100B8
:10367800FC2F00202812030070B58EB01D4E304676
:1036880011F0C2F948B901211B4A1C4810F056FA3A
:103698006FF0120420460EB070BD194B01AC93E8D0
:1036A800070084E807001E2200210DF11A0013F01C
:1036B8005AFC144A144B0125CDE9042328238DF81C
:1036C80018303C238DF81930B36808948DF83450BD
:1036D8008DF8365030461B6804A99847041E06DA50
:1036E8000A4A23462946054810F031FAD2E7002451
:1036F800D0E700BFD074010047120300887E0100A4
:10370800607F010040420F00509731001B130300F7
:103718000146014808F054BCE0050020034610B5F6
:103728000A4619790123006803FA01F1436804691C
:103738001B6819420ED10E4940F2A2630D4A0E4889
:103748000FF0E7FF0D480FF0E4FF40F2A2610948CF
:103758000FF0D6FF2368194218BF82F0010222B188
:103768008368DB68BDE81040184783681B69F9E780
:103778006E1303003D130300AC130300C9130300C9
:10378800F8B5044600AF006811F03EF92568034615
:10379800C0B96C4688B029686A464048CDE9050139
:1037A8004FF40071ADF81C103D4942F8101F4FF45A
:1037B800E2513C4802F098FB6FF01205A5462846F6
:1037C800BD46F8BD2179E38803F03002302AD5F8E8
:1037D80010C0D5E9010E0ED1334940F2F733334A10
:1037E80033480FF096FF33480FF093FF40F2F7315C
:1037F8002E480FF085FF03F00602042A09D12E494E
:1038080040F2FE33294A2A480FF083FF40F2FE3186
:10381800EEE701260068DA0706FA01F654BF43F41A
:10382800B01383F4D013064223F480120CD1234939
:1038380040F211431D4A1E480FF06BFF20480FF05D
:1038480068FF40F21141D3E7DCF80000DB074CBF0A
:103858003043B043CCF80000DEF8003028469847E3
:1038680005460028ABD02368196823796C468AB0CE
:103878006A46CDE907354FF400731248ADF8243095
:10388800114BCDE9050142F8103F00234FF43151A7
:10389800044802F029FBA54691E700BFDB130300AB
:1038A80003000001A07E0100F01303003D13030094
:1038B800AC13030029140300661403006E130300FD
:1038C800C9130300991403000500000108B5054851
:1038D800FFF756FF20B9BDE808400348FFF750BF7F
:1038E80008BD00BFC4840100BC84010013B5094CA5
:1038F80001212046FFF712FF074B5C6300220023DB
:103908000548CDE9002347F6122200230BF08EFA72
:1039180002B010BDBC840100A805002001210148A7
:10392800FFF7FCBEC484010000210148FFF7F6BE82
:10393800C484010008B500F0F1F8124A106048B9D3
:1039480011494823114A12480FF0E3FE48210F4855
:103958000FF0D6FE038CA02B07D00E4949230B4A43
:103968000B480FF0D6FE4921F1E711F0CAF90346DA
:1039780030B109480121094A10F0E9F86FF0010057
:1039880008BD00BF1430002004150300CA1403004A
:10399800AC1303000D150300007F0100441503005C
:1039A8002DE9F0470C461646054600AF48B94B4985
:1039B8007A234B4A4B480FF0ACFE7A2148480FF067
:1039C8009FFEDFF84081D8F8000011F08BF9A04283
:1039D800024607D044497B23414A42480FF099FEEA
:1039E8007B21EBE73EB941497C233D4A3D480FF036
:1039F80090FE7C21E2E72946D8F8000011F041F951
:103A080004462846FFF784FE7E2C04D16FF00F0091
:103A1800BD46BDE8F08744B12346354A3548012103
:103A280010F095F84FF0FF30F2E7D8F8000011F0E9
:103A38003CF97E280546E9D010B12F4A0346EDE748
:103A4800D8F800309FED2D7AB3F84820DB6CDFF80A
:103A5800B89003EB8203D3ED007AF4EEC77AF1EE67
:103A680010FAF5EEC07ACCBF01220022F1EE10FA6E
:103A7800DFF89880D9F80010D8F80030C1F3C040BA
:103A8800A3EB0003134442EA4102C8F80030C9F826
:103A9800002015DDEA468AB0194A17EE900ACDE9EA
:103AA8000523FCF771FE6A460623CDE9080142F8B2
:103AB800103F4FF443512B460E4802F015FAD546F5
:103AC800D8F8003000200E2B4FF0000382BFC8F852
:103AD8000030C9F800300123337099E769150300F5
:103AE800CA140300AC13030076150300AC150300D9
:103AF800B8150300007F0100D7150300A4707D3FAF
:103B0800F815030014300020103000200C3000207D
:103B1800014B186811F079B814300020004870473C
:103B2800F000002010B500F05DF9194C206048B98C
:103B380018496C23184A19480FF0EBFD6C211648F8
:103B48000FF0DEFD11F0D0F80C2807D014496D23D2
:103B5800114A12480FF0DDFD6D21F0E7206811F0E1
:103B6800C1F8A02807D00F496E230B4A0B480FF065
:103B7800D0FD6E21E3E7206811F0C3F8034630B1A9
:103B880009480121094A0FF0E2FF6FF0010010BD5A
:103B980054420020731603003D160300AC130300C3
:103BA8007D1603008F170300987E0100441503005B
:103BB8002DE9F84F2DED028B0C461546064600AF51
:103BC80048B97049B623704A70480FF0A2FDB62173
:103BD8006D480FF095FDDFF8F481D8F8000011F07A
:103BE80081F8A042024607D06949B723664A674868
:103BF8000FF08FFDB721EBE73DB96649B823624A5C
:103C080062480FF086FDB821E2E73146D8F8000097
:103C180011F037F804463046FFF77AFD7E2C06D1BE
:103C28006FF00F00BD46BDEC028BBDE8F88F44B1C4
:103C38002346594A594801210FF089FF4FF0FF30B8
:103C4800F0E7D8F8000011F030F87E280446E7D0F5
:103C580010B1534A0346EDE7D8F800302870B3F89E
:103C680048600B2E07D94F498B23474A47480FF026
:103C780050FD8B21ACE7DB6CDFF8549103EB860336
:103C880093ED008A484B18EE100A53F826A0FCF76B
:103C98007BFD012EDFF83C811BD86D468CB06A464F
:103CA800424BCDE90801CDE9053A4FF40073ADF870
:103CB80028303F4B42F8103F4FF4535123463748C2
:103CC80002F012F9AD46C9F800400023C8F80030E8
:103CD80049E0384B1A78B24206D01E700023C9F862
:103CE80000300023C8F80030DFED337A98ED007A11
:103CF80028EE278ADFED317A07EE278AD9F80030D7
:103D0800EB46013388ED008AC9F800308EB02C4AA2
:103D1800CDE90801CDE9052A079318EE100AFCF74A
:103D280033FD4FF400736A46ADF83030254BCDE9CA
:103D38000A0142F8103F002344F2C041174802F03C
:103D4800D3F8214BD9F8002003EBC6031979DD46D7
:103D5800914208DCD8ED007A93ED007AB4EEE77A68
:103D6800F1EE10FA01D900205CE701232B706FF007
:103D78000903C5ED027A6E80C5F804A0C9F80030C1
:103D8800A3E700BF691503003D160300AC13030049
:103D9800D217030009180300B8150300987E010024
:103DA800D715030014180300D40D02000D190300E1
:103DB8000600000160B100208FC2F53DAE47613FAB
:103DC8002119030008000001740D0200544200206C
:103DD800504200204C420020014B186810F015BFDB
:103DE8005442002000487047880100202DE9F04126
:103DF80004460D460FF02FFB804600284BD129467C
:103E080020460FF0F9FA014620460FF03CFB04EB80
:103E180080010E6996B90122E36882401343E3608A
:103E280002220D612B46294620460FF0DAFA0322BA
:103E380029462046BDE8F0410FF0D3BA02223146A8
:103E480020460FF0C3FA03220146074620460FF02A
:103E5800BDFA86420BD00121104A11480FF06EFEC0
:103E680088F31188BFF36F8F0423184602DF3B469F
:103E78000222294620460FF0B4FA03223346294687
:103E880020460FF0AEFA39462B4620460FF0A9FA25
:103E980002223146CDE7BDE8F08100BF9819030042
:103EA800E07E01002DE9F041174603220E46044644
:103EB8000FF08CFA8642054607F104080AD1012260
:103EC800E368BA4023EA0203E360002344F8283099
:103ED800BDE8F0810222314620460FF077FA03222E
:103EE8000146074620460FF071FA864206D10222A3
:103EF800294620460FF06AFA86420CD001210E4A64
:103F08000E480FF01BFE002383F31188BFF36F8F59
:103F18000423184602DF2B4639462046032244F87C
:103F280028500FF05EFA3B4629462046BDE8F0418E
:103F380002220FF056BA00BF98190300E07E010074
:103F480038B5012205460C460FF040FAC30713D4D2
:103F5800214628460FF079FA014628460FF06EFAF6
:103F6800844209D1214628460FF068FA01462846BE
:103F78000FF06BFA84420CD00121064A06480FF074
:103F8800DDFD002383F31188BFF36F8F04231846E8
:103F980002DF38BDBC190300E07E01002DE9F843BB
:103FA8000E4600AF002900F0A380046801222046D5
:103FB8000FF05FFA0146054620460FF007FA10EAAF
:103FC800020816D1E94688B06A464B4BCDE905365A
:103FD800032342F8103F4FF4C2514346474801F0CB
:103FE80083FFCD4688F31188BFF36F8F04231846EB
:103FF80002DF294620460FF028FA014620460FF036
:104008001DFAA84217D0E84688B06A463C4BCDE96D
:104018000536032342F8103F00234FF4C2513748B6
:1040280001F062FF0023C54683F31188BFF36F8F49
:104038000423184602DF294620460FF0FFF90146FF
:1040480020460FF002FAA84217D0E84688B06A4620
:104058002C4BCDE90536032342F8103F00234FF4DB
:10406800C251264801F040FF0023C54683F311885A
:10407800BFF36F8F0423184602DF0022294620462B
:104088000FF0C0F929460FF0E0F901220146064673
:1040980020460FF09BF9C2070CD431462046FFF7A3
:1040A8004FFF314620460FF03DFA3246294620465A
:1040B8000FF0F3F9294620460FF0C0F90122014616
:1040C800064620460FF082F9C3070DD43146204634
:1040D800FFF736FF314620460FF024FA2A463146CC
:1040E80020460FF0DAF9354629462046FFF77EFECE
:1040F800BD46BDE8F88300BF551A0300E07E010005
:10410800051A03002E1A03002DE9F0474B420668F2
:1041180003EA010731EA03031446B2681DD0B2F579
:10412800004F2CBF08230423BB4228BF3B46B94697
:10413800CF1B07F1FF3A1AEA070F1DD03C4940F29E
:10414800E9133C4A3C480FF0E4FA3C480FF0E1FA26
:1041580040F2E91137480FF0D3FAB2F5004F34BFF7
:1041680004230823994204D82146BDE8F0470FF0FC
:104178002DBA4FF00009DCE71CB900252846BDE838
:10418800F087B2F5004F34BF04250825FB1AE10873
:1041980004F0070001EBD301073003F007030344E1
:1041A8002B4401EBD301914228BF114630460FF052
:1041B800CFF980460028E0D0B36809EBC005B3F515
:1041C800004F34BF042308231D4435445544B5FB30
:1041D800F7F57D43A5EB0905294630460FF049F967
:1041E8002C44073424F00704A41B804507464FEAF3
:1041F800E40408D20246414630460FF06CF94146C5
:104208003046FFF7F3FD394630460FF01EF9A0425D
:1042180008D93946304622460FF05DF92146304626
:10422800FFF7E4FD0122394630460FF0EBF8A5E729
:104238009D1A03007A1A0300AC130300B81A03008E
:10424800B2F5802FF8B510D2042A28D83F4940F299
:10425800E3233F4A3F480FF05CFA3F480FF059FA12
:1042680040F2E3213A480FF04BFA0823D21ACC1D4A
:10427800114424F0070421F00701091B17294FEA0C
:10428800D1060ED835494FF43B73314A31480FF007
:1042980040FA31480FF03DFA4FF43B71E2E704234E
:1042A800E4E70023046031462046A660E3600FF08F
:1042B800EAF8820002F11B05B6F5004F4FEAD50572
:1042C8000FD26B1C9E420CD2254940F20233204A81
:1042D80020480FF01EFA20480FF01BFA40F2023176
:1042E800C0E70021043204F1100012F03CFE2A4617
:1042F800204600210FF09EF8002320461A46194652
:104308000FF06FF8771B1946204601220FF07AF854
:104318003A4629460FF08EF82B46002229462046B9
:104328000FF05FF8314620460FF084F83B463146DF
:10433800204600220FF055F83146204601220FF0A2
:1043480061F82946BDE8F840FFF750BDD51A0300CB
:104358007A1A0300AC130300F61A03000F1B0300BC
:10436800381B03002DE9F04F91B0009302F00403CD
:104378000293C2F3C2030133840705460E46DDF8F3
:1043880068A00392059340F0C881041D002837D126
:1043980001F00706341DC6F10806009B4FF000081F
:1043A80004275A1E4FF0FF33C1460193C3463B46CC
:1043B800CDF810800DB1009820600598002800F312
:1043C800BF809C480099814203D39B488142C0F03A
:1043D800B7800399601B11F0020C40F0CA80B9F154
:1043E8000F0F40F2C980954940F28123944A9548BD
:1043F8000FF08FF994480FF08CF940F28121B5E065
:104408000729CAD86FF01B0011B0BDE8F08F7A28D1
:104418005AD84B280FD8472856D829282DD82528C8
:104428004FD051D8202818BF23280CBF4FF0010BBC
:104438004FF0000B6EE04C382E2845D8DFE800F02E
:104448006A444444444444444444444447444444FB
:104458004444444444544447475454546A47684481
:104468006A4418471844447B7947444447447900D0
:1044780000204FF0000B042734E001212A38C0B295
:1044880001FA00F010EA0E0F44D110F0625C2BD153
:1044980010EA010B3ED06046013C3C44B4FBF7F403
:1044A8007C4325B1A3EB050CA444B445AAD8002845
:1044B80000F096800598013805905AF8040B009092
:1044C80078E70199013901914FF0000B22E012F8C9
:1044D800010C6C2831D1002012F8023C83466C2B69
:1044E800C9D108273B46D7E70AF1070A2AF0070A85
:1044F8000734BAEC027B24F0070435B1069820444F
:10450800B0423FF67FAF84ED007B4FF0000B0834DC
:1045180008273B4612F8010F00287AD0BBF1000F9C
:104528007FF475AF2528F5D14FF0010B019B0133BE
:1045380001930427EDE758469BE700208346ABE745
:10454800039988072FD54FF0010C601BB0F5007F49
:10455800FFF445AF39494FF41F73394A39480FF012
:10456800D8F83A480FF0D5F84FF41F7134480FF0D7
:10457800C7F84FF0000CE9E705B309F140010DEB6E
:10458800010E0199C0F387000EF8200C0EF8101CDC
:10459800BCF1000F0ED060F07F000EF8200C08F17F
:1045A800010809F10109C5F108014FF6DA7E043462
:1045B8000691AFE7049801300490F2E7BCF1000FD0
:1045C80001D00136EDE7029902360029E9D10098B9
:1045D800CDE90632FCF76AFDDDE906320644E0E77C
:1045E800042B08D10AF1040015B1DAF80010216093
:1045F800824604348EE70AF1070323F0070303F128
:10460800080A1DB193ED007B84ED007B0823083474
:1046180080E7631BB3F5806F1CD3084940F2D223AF
:10462800074A08480FF075F809480FF072F840F289
:10463800D2219BE75C73010040CB0700A137030040
:104648006B1B0300AC130300BA1B0300991B030088
:10465800D41B03001DB9A6F10804E018D4E6029A99
:104668009B0828602B709DF81030BAB1EB7085F864
:104678000280B8F1000F05D0002208A8C5F1010793
:1046880091450DD14FF0000AC5F1010308AF019320
:104698000DF1300BD14512D1601BB5E66B70E6E722
:1046A80010F8013B190608D507EB040CB44503F0D4
:1046B8007F033FF6A7AE04F8013B0132E0E7B8F10B
:1046C800000F03D097F90020002A16DB029BC3B124
:1046D8001AF80B2004F8012B0022019B181910442A
:1046E800B0423FF68FAE3878009904F8010B2046A7
:1046F800039212F012FC039A14440AF1010A0137DA
:10470800C8E73A7855F822300093029B009845F89C
:104718002230FCF7CBFC421CDFE76FF00D0073E69C
:104728002DE9F04F95B000AF8A460546C7E9083233
:1047380058B99B4940F299339A4A9B480EF0E9FFD1
:1047480040F2993197480EF0DBFF49B90378467873
:10475800807800EB83002844564521D8A0EB050A51
:10476800BB6F95F8028003F00103BC6F3B61EB78E7
:10477800B8F1000F0CBF002404F00104FB6113B171
:10478800BB6F9E0715D4A4B97B6A1BB15146284656
:104798003A6A9847564630465437BD46BDE8F08FCA
:1047A800441C2046FCF782FC013020440AF1010A2F
:1047B800D2E7BB6FC3F3C0037B612B78FB609B0020
:1047C8007B606B68BB60FB6805EB830B7B6A002B27
:1047D80071D15646D844ACB11C461BF8013B55F87C
:1047E8002300FCF763FCFB6F01303BB1D7F8803046
:1047F800A34282BFFB6F23F814000134C34506446B
:10480800EBD1D846BB6F4FF0000913F0050F0CBF72
:104818004FF0020B4FF0010BFB699945BBD298F89A
:10482800013008F1020855F823A0604B9A45C0F002
:1048380082815F4B7A699A452CBF002301230AB312
:1048480018F8021CB8687B620EF02CFF7B6AC8B1AE
:10485800EA468AB06A46574B0593BB68CDE90631EC
:104868004FF40073ADF82030534B42F8103F00234B
:104878004FF41251514801F037FBD546023E09F179
:104888000109C9E723B13B692BB9A6EB0B06F6E78B
:10489800BB6F9807F3D55046FCF708FCFB6F43B194
:1048A800D7F880309C423FBFFA6F431C22F814307F
:1048B80001340644E3E7002C66D1B8F1000F69D053
:1048C800BB6F590769D5C14607F1400042465946B2
:1048D80012F023FB0BEB0803BB610023DFF8D0E0E9
:1048E800FA6993426CD3BA6F95F801B039699207A7
:1048F80004EB0B0348BF0022DBB258BF4FEA590252
:10490800002940F0E280B96F11F0040F14BF494646
:1049180000216B70A970EA7028463A6A79687B6A48
:104928009847061EFFF637AFFB6849462B70FB69B0
:104938003A6AEB7085F801B07B6A85F8028007F166
:1049480040009847B0F10009C0F2F1807B68FA692D
:10495800B86903EB420141443A6A7B6AAAEB010158
:1049680098470028C0F2E5804FF0000BB14409EBEE
:10497800000607F1300AA345C0F0A98000213A6A71
:1049880008467B6A984706E744464FF0000907F156
:1049980030009BE74446C1469CE7A1469AE700BF22
:1049A800EB1B03006B1B0300AC1303005C730100DB
:1049B80040CB0700061C030004000001687E0100CC
:1049C800B869634A10F8021B10F8016CB86155F811
:1049D80026009042C0F0B5807A6970452CBF4FF030
:1049E800000B4FF0010B3AB1B8683B600EF05AFE6D
:1049F8003B68DFF870E160BBBBF1000F2BD03A6970
:104A08005AB10F2C36D9534940F24343524A5348BE
:104A18000EF07FFE40F2434194E6BA6F520718D574
:104A2800B9F10F0F09D94E4940F246434A4A4B485B
:104A38000EF06FFE40F2464184E609F1280207F1C4
:104A4800280009F1010102EB000909F8106C5FFA6E
:104A580081F9013344E7BA6F900715D50F2C09D9AE
:104A68003C4940F24D433C4A3C480EF052FE40F26D
:104A78004D4167E604F1280207F12800611C14186B
:104A880004F8206CCCB2E4E7B9F10F0F09D9344926
:104A98004FF48A63304A31480EF03BFE4FF48A6186
:104AA80050E609F1280207F1280C09F101009444A5
:104AB80007F1500209F1020952FA80F00CF8101CB3
:104AC8005FFA89F900F8106CC3E7002121E71BF8A9
:104AD8000A3055F8239087F82F30FB6F23B3D7F8A7
:104AE80080309B4520D2FB6F33F81B8001213A6A46
:104AF8007B6A07F12F00984700281ADB0644B8F1B3
:104B0800000F06D14846FCF7D1FA00F101081FFA58
:104B180088F8414648463A6A7B6A9847002808DB85
:104B280006440BF1010B26E74FF00008DEE74E467E
:104B380031E606462FE67B69002B3FF4A9AE002339
:104B48007EE67A69002A86D04FF0000B4CE700BF5A
:104B58005C730100A91C03006B1B0300AC1303006A
:104B6800C81C030040CB0700014B1860704700BF0A
:104B78002002002080B505460E461746984609F0E3
:104B88008FFA034602F044FCDFF85090044649F8D7
:104B98000030424639463046A8470B4B1B7873B95C
:104BA8000A4940F246330A4A0A480EF0B2FD0A485A
:104BB8000EF0AFFD40F2463105480EF0A1FD54F865
:104BC800090002F09DFB00BF85B10020241D0300F1
:104BD800F91C0300AC130300371D03000800000094
:104BE80038B50D4604462022002112F0BCF90022F7
:104BF800EB68E361AB68A3612B6823626B68A26210
:104C080063622A6923B1591E194208BF42F00102A2
:104C180022610122002104F12C000FF039FF48B174
:104C2800054906482F23064A0EF073FD2F21044834
:104C38000EF066FD38BD00BF7F1D0300AC130300F6
:104C4800591D03002DE9F04F002789B0CDE9012354
:104C5800436A04468B428846BA460597079754D359
:104C680000F11406EFF31185202383F31288BFF3B4
:104C78006F8F3046A94609F001FD58B984234D4A83
:104C88004D494E480EF045FD31464D480EF041FD68
:104C9800842163E0304609F015FD079A2AB13946A8
:104CA80020460EF01CFE0023079306A920460EF0AE
:104CB8003DFD06998346414530D32268236A204644
:104CC80013F8221003EB820A21F0030103F82210E3
:104CD800216842460EF04EFDE3682060984218D0E5
:104CE8004FF0000B304609F0D7FC50B389F3118818
:104CF800BFF36F8F059929B1A2690AB12046904781
:104D080000230593BBF1000FACD1504609B0BDE8B4
:104D1800F08F236943F008032361E1E718B12046C7
:104D28000EF042FDDEE7DDE90132134339D003918D
:104D38000FF0DDFE0399A0BB9DBB304609F0ACFC2B
:104D480078B94FF499731B4A1E491C480EF0E1FCD0
:104D580031461D480EF0DDFC4FF4997115480EF0F0
:104D6800CFFC85F31188BFF36F8F04F12C00DDE9C8
:104D7800012307F0AFFE8346EFF31189202383F365
:104D88001288BFF36F8F304609F078FC00283FF493
:104D980075AFBBFA8BFB304609F094FC4FEA5B1BFE
:104DA800A0E7204607AB05AA27680EF01CFD83463E
:104DB80098E700BF881D0300B51D0300AC1303006E
:104DC800CA1D0300E01D0300F71D03002DE9F04193
:104DD8000446C36908460E46984704F11405074679
:104DE800EFF31188202383F31288BFF36F8F2846CF
:104DF80009F044FC68B984231A4A1B491B480EF081
:104E080088FC29461A480EF084FC842115480EF0C7
:104E180077FC284609F056FC33783A4643F00103FC
:104E28003370616820460EF0A5FC606020460EF0E5
:104E380071FD284609F030FC68B94FF49973094AA6
:104E48000C490A480EF065FC29460B480EF061FC37
:104E58004FF49971DAE788F31188BFF36F8FBDE8D3
:104E6800F08100BF881D0300B51D0300AC130300CB
:104E7800CA1D0300E01D0300F71D03002DE9F047DC
:104E88000446002700F11406EFF31188202383F36A
:104E98001288BFF36F8F304609F0F0FB054668B9FA
:104EA8008423394A39493A480EF033FC31463948A7
:104EB8000EF02FFC842134480EF022FC304609F015
:104EC80001FC2369A168180702D463688B4200D2E9
:104ED800636A5B1A002B41D0206A10F8213000EB7E
:104EE800810913F003023CD0022A04D150F8212092
:104EF8005FEA920A05D1DA0720D44846E369984761
:104F08008246A168524620460EF034FC5146A06005
:104F180020460EF03DFC2F46304609F0BDFB10BB85
:104F28004FF49973184A1C4919480EF0F2FB3146A0
:104F38001A480EF0EEFB4FF49971BCE743F00203F8
:104F480000F82130E3694846A56898472946024693
:104F580020460EF00FFC0025A060DDE71D46A9469F
:104F6800DAE71546FBE788F31188BFF36F8F002D4A
:104F78008AD137B1B9F1000F03D104F12C0007F041
:104F88002BFD4846BDE8F087881D0300B51D0300CA
:104F9800AC130300CA1D0300E01D0300F71D030046
:104FA8002DE9F0410446C36908460D46984704F1C7
:104FB80014060746EFF31188202383F31288BFF302
:104FC8006F8F304609F05AFB68B98423274A28496D
:104FD80028480EF09EFB314627480EF09AFB8421A4
:104FE80022480EF08DFB304609F06CFB2B7823F03D
:104FF80001032B7023699B0705D5E268236A03EB3D
:1050080082039D4222D12B7823F002032B70D4E92E
:105018000231994204D13A4620460EF0ABFBA0601B
:10502800394620460EF0B4FB304609F035FB90B9FE
:105038004FF499730D4A11490E480EF06AFB314638
:105048000F480EF066FB4FF49971C9E72B6867F3B8
:105058009F032B60E8E788F31188BFF36F8F04F193
:105068002C00BDE8F04107F0B7BC00BF881D030065
:10507800B51D0300AC130300CA1D0300E01D0300A7
:10508800F71D030070B5044600F11405EFF311860F
:10509800202383F31288BFF36F8F284609F0EEFAB6
:1050A80068B984231A4A1B491B480EF032FB29466B
:1050B8001A480EF02EFB842115480EF021FB2846D5
:1050C80009F000FB2369A0681B0702D463688342C8
:1050D80013D2646A241A284609F0DEFA78B94FF424
:1050E80099730B4A0E490C480EF013FB29460D48DC
:1050F8000EF00FFB4FF49971DEE71C1AEBE786F30D
:105108001188BFF36F8F201E18BF012070BD00BF2C
:10511800881D0300B51D0300AC130300CA1D03005E
:10512800E01D0300F71D03002DE9F84F0546AB8B82
:1051380008461907904616D501280CBF43F01003FE
:1051480043F02003AB831435284609F0A5FA00285C
:1051580040F0B181AE494FF49973AE4AAE480EF0B3
:10516800D8FA29469DE0022803F0070140F07D8126
:1051780028460EF0DCFB052800F2FA8001A353F85C
:1051880020F000BF4F510000735400007953000015
:105198001D520000B75200001753000002F007022A
:1051A800531F012B1AD80023062A2E68A4B2C5E97A
:1051B800003309D1334603E0EA8B0132EA831B68E6
:1051C800002BF9D144F002042846AC830EF0AFFB63
:1051D800002800F05A8144F0200455E1042A0DD13A
:1051E800A4B22846AC830EF0A2FB0646002800F0C5
:1051F8004C8144F020040026AC8346E1874940F204
:105208001B13874A84480EF084FA40F21B11844825
:105218000EF076FA49B183494FF4AB73804A7E4861
:105228000EF077FA4FF4AB71F1E72B684BB97E4972
:1052380040F257137A4A78480EF06BFA40F2571149
:10524800E5E72B691F684FB978494FF4AD73744A85
:1052580071480EF05EFA4FF4AD71D8E70E468A46F3
:105268004FF00609AC8B24F0070444F00604A4B2FE
:10527800AC83AB68002B00F00F814FF0010B44F0BA
:105288000804AC8305F11404204609F005FA002847
:1052980078D15F494FF499735E4A5F480EF039FA46
:1052A800214663480EF035FA4FF499718EE00229D1
:1052B80009D0604940F25D13594A57480EF029FA5F
:1052C80040F25D11A3E7EE8B4EB15B494FF4AF732B
:1052D800534A51480EF01DFA4FF4AF7197E72B6906
:1052E8005F684FB9514940F261134D4A4A480EF080
:1052F80010FA40F261118AE7AC8BB24624F0070439
:1053080044F00404A4B24FF00409AC83B1E70129C6
:1053180009D04A494FF4B273414A3F480EF0F9F9AF
:105328004FF4B27173E72B684BB93F4940F26513EC
:105338003B4A39480EF0EDF940F2651167E72B69F1
:105348009F684FB939494FF4B473354A32480EF063
:10535800E0F94FF4B4715AE70026AC8BB24624F05A
:10536800070444F00504A4B24FF00509AC8380E7B4
:105378002A4940F26B132A4A27480EF0CAF940F22C
:105388006B1144E788F31188BFF36F8FBBF1000FEF
:105398001ED1002E33D117B128462949B847EFF35B
:1053A8001188202383F31288BFF36F8F204609F0FA
:1053B80065F900284AD18423164A224916480EF076
:1053C800A8F9214620480EF0A4F9842111481FE7C6
:1053D800A9680029DDD0D1F800800029D9D053462A
:1053E8004A462846D1F804B0D847B8F1000F04D08F
:1053F800D8F8003041469846EFE74346FAE7314689
:1054080053464A46284636680EF0BDFAC1E700BF43
:10541800E01D0300881D0300AC130300A13703003F
:10542800171E03003C1E0300481E03006B1E0300EA
:10543800F71D0300821E0300981E0300A71E030029
:10544800CD540000B51D0300CA1D0300204609F015
:1054580039F9AC8B24F00804A4B2AC83E20621D558
:1054680024F01003AB8304F00701D5F818A0AA8B29
:10547800BAF1000F22F00704BFF690AE00232E68A1
:10548800C5E9003344F00104AC8304F007098945F9
:105498004FF000077FF4EDAE0EB9002FDED04FF0CD
:1054A800000BECE6A3067FF54EAE24F02003AB8399
:1054B80004F007015CE688F31188BFF36F8FBDE83D
:1054C800F88F00BFF8B504460D4600F11406EFF357
:1054D8001187202383F31288BFF36F8F304609F0BA
:1054E800CDF868B984230C4A0C490D480EF011F91F
:1054F80031460C480EF00DF9842107480EF000F9EA
:10550800304609F0DFF8A5613A462046BDE8F84084
:105518000121FFF709BE00BF881D0300B51D030068
:10552800AC130300CA1D03002DE9F04704460E46DC
:105538000EF019FA051E66DB04F11409EFF3118A5F
:10554800202383F31288BFF36F8F484609F096F83B
:10555800804660B98423374A374938480EF0D9F86D
:10556800494637480EF0D5F88421324843E048468A
:1055780009F0A8F84FF6FF72E38BA78B934207F068
:10558800070743D0062F2CD8DFE807F01F43092B65
:105598001F041F006FF085054FF0000802E0022588
:1055A8000133E383484609F077F8002834D14FF4F3
:1055B8009973204A234921480EF0ABF849462248FE
:1055C8000EF0A7F84FF49971CFE7002333606368B2
:1055D80023B9C4E9006687B13D46DDE71E60666011
:1055E800F9E71A4915484FF4E473194A0EF091F88F
:1055F8004FF4E47116480EF083F852460221204613
:10560800FFF792FD3D462846BDE8F0876FF00A0592
:10561800C2E76FF00405BFE78AF31188BFF36F8F05
:10562800B8F1000FEFD000233A46314620460EF07D
:10563800AAF9E8E7881D0300B51D0300AC130300B1
:10564800CA1D0300E01D0300F71D0300A71E030089
:10565800171E0300F8B5054600F11406EFF311878D
:10566800202383F31288BFF36F8F304609F006F8C2
:1056780060B98423254A264926480EF04AF831465F
:1056880025480EF046F8842120482BE0304609F0E2
:1056980019F8AC8B04F00704022C17D0012C0CBFAE
:1056A8006FF004046FF08504304608F0F5FF38BB4E
:1056B8004FF49973154A194916480EF02AF83146DD
:1056C80017480EF026F84FF49971DDE7EB8B5BB9BC
:1056D8001449104840F2EF13134A0EF01AF840F23A
:1056E800EF1111480EF00CF8013B9BB2EB83002B35
:1056F800DAD13A4621462846FFF716FD2046F8BD7E
:1057080087F31188BFF36F8FF8E700BF881D030088
:10571800B51D0300AC130300CA1D0300E01D030000
:10572800F71D0300BD1E0300171E030008B54268DD
:10573800034602F00302032A81600AD06AB90849C5
:1057480008484523084A0DF0E4FF452106480DF0B6
:10575800D7FF006800225A6008BD0020FAE700BFA2
:10576800A1370300AC130300CB1E030008B558B9DA
:105778000749084840F23513074A0DF0CAFF40F2BE
:10578800351105480DF0BCFF4368587908BD00BFC6
:10579800291F0300AC130300F11E030010B548B91C
:1057A80008490948A023094A0DF0B3FFA02107487A
:1057B8000DF0A6FF03681B6913B1BDE81040184738
:1057C800184610BD291F0300AC130300F11E030087
:1057D8002DE9F843044606460127DFF8408094FA8D
:1057E800A4F5B5FA85F507FA05F308EB05156FEA90
:1057F800030924EA03042B7B5BB12846FFF7CEFF9D
:1058080038B96B6804222846196806EA09060EF0BA
:1058180025F9002CE3D13046BDE8F883087F010064
:1058280010B5002288B00E490E480FF0D6F90022B4
:1058380000230024CDE906230E234FF40062CDE9AE
:105848000334CDE90144084B08490094084807F09F
:1058580015FD0849064807F043FC204608B010BD6E
:105868006159000098290020AD5C000008B20020B2
:1058780090240020401F03002DE9F047DFF8D49062
:105888002D4C8046A9EB04038F2B0F460BD92B49CF
:1058980040F253132A4A2B480DF03BFF40F25311B4
:1058A80027480DF02DFF28480EF0BCF8064660B3D7
:1058B80000252846BDE8F087237B8BB12368DB6889
:1058C8000BB1204698476368204683F806A0FFF787
:1058D80065FFB0B963680422204619680EF0BEF867
:1058E800013610344C4514D9184940F25F13144A54
:1058F80014480DF00EFF16480DF00BFF40F25F1133
:10590800CEE70AFA06F31D43EAE705464FF0010A17
:10591800E8E7D1D3B8F1000FCBD0002DC8D0284686
:10592800FFF756FF0546002FF7D0002140F2391047
:1059380008F028FBF1E700BF087F0100751F03008E
:10594800481F0300AC1303008CAA0020A51F030006
:10595800C61F0300187F0100014807F03DB800BFCB
:105968009C060020014B53F8200070476405030093
:1059780008B5034608462BB1044A136000F094FDAD
:10598800002008BD6FF01500FBE700BF24020020CF
:1059980010B5044C237813B9034807F01DF8012308
:1059A800237010BD61B100209C06002010B504468C
:1059B80009480EF037F83CB1084BD3E8EF1F01391E
:1059C800C3E8E21F002AF8D1054809F09DFABDE8AE
:1059D8001040044807F000B884AA002088AA0020D4
:1059E800982900209C0600200022044BD3E8EF0FE2
:1059F800C3E8E12F0029F9D1704700BF84AA00202D
:105A080070B5FFF7F1FF0546104C114EB4421AD994
:105A1800104940F21623104A10480DF07AFE10483B
:105A28000DF077FE40F216210B480DF069FE204676
:105A3800FFF79CFE28B123685B6813B1294620460E
:105A480098471034E2E7F2D370BD00BF087F010029
:105A5800187F0100A51F0300481F0300AC130300B3
:105A6800C61F030010B5044C04492046FFF7B8F8D8
:105A7800034B1C6010BD00BF6805002050050300E3
:105A880078AA00200023154A10B51370144A154946
:105A98001360154A15481360FFF76AFFFFF7E2FF26
:105AA800134B144918468B4215D9134940F22B134E
:105AB800124A13480DF02DFE12480DF02AFE40F24E
:105AC8002B110E480DF01CFE1A1A5C6812110132D7
:105AD80022711033E7E7F7D310BD00BF62B1002091
:105AE80084AA002040420F0088AA0020293A010019
:105AF800087F0100187F0100A51F0300481F03004D
:105B0800AC130300C61F030001460022002301480E
:105B1800FFF798B8680500200148FFF7AFB900BF44
:105B280068050020024B01461868FFF739BA00BF24
:105B380078AA00200148FFF7A5BA00BF6805002031
:105B4800F8B5314B1B78002B5BD0FFF7E5FF044617
:105B5800002846D12D4B2E4D1B68002B19DD0FF068
:105B68003AF84FF47A76A0FB060747F6122200238C
:105B780006FB0171FBF780FAD5E90032C01A40F242
:105B8800E93361EB0201984271F1000101D3FFF79B
:105B980037FFD5E9003213F57A7342F10002C5E9FF
:105BA800003274B3BDE8F840FFF7C4BF2846FFF7DA
:105BB800DDFD20B12B68214628461B689847103523
:105BC800B54211D9134940F20A23134A13480DF07C
:105BD800A0FD13480DF09DFD40F20A210E480DF07E
:105BE8008FFD104D104EEBE7E0D32046FFF79AFFEC
:105BF8000E4BD3E8EF1F0139C3E8E21F002AA9D0F2
:105C0800F7E70020F8BD00BF61B1002084AA00209A
:105C180090290020A51F0300481F0300AC130300B0
:105C2800C61F0300087F0100187F010088AA002012
:105C380070B5154D297831BB0120FFF71DFE134CB7
:105C4800134EB44218D9134940F2CF13124A1348DD
:105C58000DF05FFD12480DF05CFD40F2CF110E48CB
:105C68000DF04EFD2046FFF781FD18B12368204650
:105C78009B6898471034E4E7F4D3FFF761FF0028E6
:105C8800FBD101232B7070BD62B10020087F010099
:105C9800187F0100A51F0300481F0300AC13030071
:105CA800C61F03002DE9F843374F384BFB1A1B0971
:105CB8000AD137494FF46F73364A37480DF029FD3A
:105CC8004FF46F71334819E000210846FFF7D4FDFF
:105CD8000446A8B140F21B684FF000092F4B1B780F
:105CE8009BB92F4940F246332E4A2B480DF011FD3F
:105CF8002D480DF00EFD40F246312A480DF000FD0A
:105D08004FF0FF384FF0FF39E8E701F081FB274BF0
:105D1800274A1B58136033B1264B1B68092B02DD39
:105D2800254806F059FE002544B12046FFF750FDEE
:105D3800044618B94FF0FF384FF0FF39FFF700FF5E
:105D4800064628B935B91C4842464B4606F0C2FEFD
:105D58003546E9E70D4D08E0F5D22B689B691BB184
:105D680000222846114698471035BD42F4D91349F8
:105D78004FF46C73074A08480DF0CBFC10480DF03F
:105D8800C8FC4FF46C719DE7187F0100087F010083
:105D9800E51F0300481F0300AC13030085B1002072
:105DA800241D0300F91C0300371D03000800000030
:105DB80080AA002088AA00209C060020A51F0300B6
:105DC800C61F030013B52C480DF02CFE2B4B1B7877
:105DD800002B35D0EFF31184202383F31288BFF30F
:105DE8006F8F274808F04AFC68B98423254A26495A
:105DF80026480DF08EFC224925480DF08AFC8421A6
:105E080020480DF07DFC1E4808F05CFCFFF798FE6A
:105E18001B4808F041FC68B94FF49973194A1D49A9
:105E28001A480DF076FC16491B480DF072FC4FF429
:105E38009971E5E784F31188BFF36F8F02B010BD45
:105E4800164B1B68002BF9D050B9002200231448C8
:105E5800CDE9002347F61222002308F0E7FFEDE71B
:105E68000928EBD10E4809F04FF80E4802B0BDE8FA
:105E7800104006F0B1BD00BF88AA002062B1002022
:105E88007CAA0020881D0300B51D0300AC13030085
:105E9800CA1D0300E01D0300F71D030080AA0020AF
:105EA800982900209C06002010B5064B04461B6864
:105EB80098472146A0600448FEF788FFBDE81040D7
:105EC800FFF780BF2402002068050020044A054B24
:105ED8009B1AB1EBD30F34BF52F831000020704742
:105EE800607E0100087F01002DE9F04F8FB0C1F3FB
:105EF8004A2604AF0D469046B8607B600C0D002E14
:105F080066D04FF000090A234FF0040B07F1140A7A
:105F1800FE60C7E90799C7F824900093CDF808B048
